:100000000C9489000C9440160C9467160C94B10063
:100010000C94B1000C94B1000C94B1000C94B1009C
:100020000C94B1000C94B1000C94B1000C94B1008C
:100030000C94B1000C94B1000C94B1000C94B1007C
:100040000C94F40B0C94B1000C94370F0C94690FC2
:100050000C94B1000C94B1000C94B1000C94B1005C
:100060000C94B1000C94B10046041004060424045E
:1000700018041404D803FD03000000080002010066
:100080000003040700000000000000000102040853
:1000900010204080010204081020010204081020F2
:1000A000040404040404040402020202020203031E
:1000B00003030303000000002300260029000000C2
:1000C0000000250028002B0000000000240027006D
:1000D0002A004E414E494E495459494E46CDCCCC4A
:1000E0003D0AD7233C17B7D13877CC2B329595E60C
:1000F000241FB14F0A000020410000C84200401CEC
:100100004620BCBE4CCA1B0E5AAEC59D7400FE07ED
:10011000990F11241FBECFEFD8E0DEBFCDBF11E095
:10012000A0E0B1E0E2E1FAE302C005900D92A03C4C
:10013000B107D9F723E0A0ECB1E001C01D92AC3CBF
:10014000B207E1F710E0C9E8D0E004C02197FE0152
:100150000E94B016C738D107C9F70E94A50D0C94AC
:10016000071D0C940000FC01E653FF4F20813181F4
:10017000AB01420F531F493C510568F4A9014E5F82
:100180005F4F6F5F7F4F6E7F620F731F718360835E
:10019000840F951F089580E090E00895009749F03E
:1001A0006115710531F0FC01808191816150710907
:1001B000F5CF08950F931F93CF93DF93EC018B013D
:1001C000209759F06A817B81C8010E94B41C892B59
:1001D00039F00990D881C02DF3CF80E090E001C0C4
:1001E000CE01DF91CF911F910F910895CF93DF93AF
:1001F000EC01888199810E94F40D2A813B81820F54
:10020000931F9B838A83DF91CF9108958F929F9252
:10021000AF92BF92EF92FF920F931F93CF93DF9312
:10022000CDB7DEB766970FB6F894DEBF0FBECDBF71
:100230007C011E8A8E010A5E1F4F8AE0882E912C57
:10024000A12CB12CCB01BA01A50194010E948E16FC
:10025000942F852F605DF80162938F01A901692FAA
:10026000782F411551056105710561F7BF01C7017F
:100270000E94F60066960FB6F894DEBF0FBECDBFA3
:10028000DF91CF911F910F91FF90EF90BF90AF90B2
:100290009F908F900895CF93DF93EC01888199818F
:1002A000DC01ED91FC910190F081E02D09952A810E
:1002B0003B81820F931F9B838A83DF91CF910895A7
:1002C000FF920F931F93CF93DF936115710549F44C
:1002D00063E171E0DF91CF911F910F91FF900C943A
:1002E000F6008B01EC0162E2CE010E944B01F801A5
:1002F00061918F01662351F0E4E0F1E0F080FF208E
:1003000099F39181961759F03296F8CF62E2CE01B7
:10031000DF91CF911F910F91FF900C944B016CE5F1
:10032000CE010E944B016F2DDFCF813051F0E8F0FC
:10033000823061F0833079F46FE672E183E89AE30A
:1003400008956DEC7CEC8CEC9DE308956AE077ED0C
:1003500083E29CE3089584500E94950127E137EBE6
:1003600041ED58E30E94A118089560E070E080E834
:100370009FE308954F925F926F927F92AF92BF92E8
:10038000CF92DF92EF92FF921F93CF93DF93EC0116
:100390006A017B01122F9A01AB01C701B6010E94CD
:1003A0000E19882319F068E171E02BC020E030E0DD
:1003B000A901C701B6010E943D1787FF08C06DE281
:1003C000CE010E944B01F7FAF094F7F8F094260161
:1003D0003701E89477F82FEF3FEF4FE75FE7C3016E
:1003E000B2010E940E1981111CC02FEF3FEF4FE7A1
:1003F0005FE7C301B2010E943D17181694F46CE147
:1004000071E0CE01DF91CF911F91FF90EF90DF90CF
:10041000CF90BF90AF907F906F905F904F900C9473
:10042000F60020E030E04AE754E4C701B6010E943C
:100430009C18A12CB12C181614F12FE632E143E8D8
:100440005AE3C701B6010E943D1787FF39C017C0A4
:1004500020E030E040E85FE3C701B6010E943D17AD
:1004600087FF16C081E0A81AB10820E030E040E222
:1004700051E4C701B6010E94A1186B017C0120E084
:1004800030E0A901C701B6010E943D178111E0CFFC
:1004900020E030E040E251E4C701B6010E949C1820
:1004A000181674F48FEFA81AB80A20E030E040E282
:1004B00051E4C701B6010E9442176B017C01E8CFED
:1004C000812F0E94950120E030E040E05FE30E9430
:1004D000A1189B01AC01C701B6010E94D1162B01E6
:1004E0003C010E94BB176B017C010E94EA179B0133
:1004F000AC01C301B2010E94D0162B013C01B7012F
:10050000A601CE010E940601112321F06EE2CE0168
:100510000E944B01F12EFF2019F120E030E040E273
:1005200051E4C301B2010E94A1182B013C010E94B9
:10053000B417162F062E000C770B880B990B0E9410
:10054000EC179B01AC01C301B2010E94D0162B0134
:100550003C0160E3610FCE010E944B01FA94DBCFB6
:10056000B7FE0EC065E271E0CE010E94F60044279E
:1005700055274A195B09052E000C660B770B0BC03B
:10058000A114B104C1F065E6CE010E944B01A501A2
:10059000BB0C660B770BCE01DF91CF911F91FF90C3
:1005A000EF90DF90CF90BF90AF907F906F905F9073
:1005B0004F900C940601DF91CF911F91FF90EF9027
:1005C000DF90CF90BF90AF907F906F905F904F90F3
:1005D0000895DB01109749F0ED91FC91119701907E
:1005E000F081E02DBC01CD01099480E090E00895F8
:1005F0008091D20281110BC01092C5011092C401EA
:100600001092C7011092C60181E08093D20284EC5F
:1006100091E00895FC01828193810E94DA000097A5
:1006200049F0FC01248135812630310519F4868199
:10063000978108950C94F802FC0120812D3051F02F
:1006400024F42950223030F505C0203219F02F3221
:1006500019F008950196F0CFFC0121812A3219F09A
:100660002F3279F00895FC013296CF012081319626
:10067000222311F32A32C9F720812F32B1F70296D3
:10068000DBCFFC013296CF0121912223A9F22A303F
:10069000D1F7D2CF08950F931F93CF93DF931F927B
:1006A000CDB7DEB78C01FC018081918169830E9406
:1006B0001C03FC0120816981261308C001960E9459
:1006C0001C03F8019183808381E001C080E00F90DA
:1006D000DF91CF911F910F910895CF93DF93AC01DC
:1006E000EC01AA81BB812C818D819C91973219F4F8
:1006F000C22FD82F15C09232D9F3C22FD82FFD01A7
:1007000031C02C3559F4FD01329612962C91A8E097
:10071000B1E08C91811111C0222359F12993DF019D
:100720003C2F6D2FFD01319611962C9111972223AC
:1007300001F12913E6CF31961CC0821303C0119634
:100740002C91EACF1296E5CF892F8F7D81548A3183
:1007500030F09B3221F083ED890F823050F4999371
:10076000319690813C2F6D2F80ED890F8A30B8F340
:10077000EBCFA32FB62F1D92EA018C819D81FB83C5
:10078000EA83BD83AC83DF91CF9108950F931F93CC
:10079000CF93DF93EB01FC012081318128303105BB
:1007A00008F067C08C01F901EC5CFF4F0C94B016A7
:1007B000FC01028113816BE5CE010E944B01F8011F
:1007C000028113810115110559F0BE01C80102967D
:1007D0000E94C603F801008111810115110541F441
:1007E0006DE5CE01DF91CF911F910F910C944B01DC
:1007F0006CE2CE010E944B01E5CFFC018281938126
:10080000DF91CF911F910F910C944B04FC016281F9
:100810007381CE01DF91CF911F910F910C946001F4
:10082000FC01628173811EC06DE2CE010E944B010A
:10083000F8014281538164817581CE01DF91CF91AE
:100840001F910F910C940601FC0182819381A48178
:10085000B581892B8A2B8B2B19F46DE271E002C0D4
:1008600068E271E0CE01DF91CF911F910F910C945E
:10087000F6002850FC014281538164817581CE01CC
:10088000DF91CF911F910F910C94BA01DF91CF911D
:100890001F910F9108950F931F93CF93DF938C01B6
:1008A000EB016BE7CE010E944B01F801028113813D
:1008B00001151105A9F0F80162817381CE010E9432
:1008C00060016AE3CE010E944B01BE01C80104969B
:1008D0000E94C603F801008111810115110541F440
:1008E0006DE7CE01DF91CF911F910F910C944B01D9
:1008F0006CE2CE010E944B01DBCFCF93DF93EC0182
:10090000BC0184E090E00E94E902009741F0FC0104
:10091000D183C08313821282DF91CF910895DF913A
:10092000CF910C94F802CF93DF93EC01BC0184E0EB
:1009300090E00E94E902FC01009729F0D183C08376
:100940001382128211C08091CA0281110BC01092D1
:10095000C1011092C0011092C3011092C20181E046
:100960008093CA0280EC91E0DF91CF910895CF93FC
:10097000DF93FC01808191818330910534F48130D3
:100980009105DCF4892BA1F12CC08530910584F010
:10099000059739F582819381A481B5819C01AD01D0
:1009A00066277727CB01621B730B840B950B28C03E
:1009B000628173818481958123C0C281D381209714
:1009C000B9F0BE0188E291E00E94B41C892BA1F02D
:1009D0004AE050E060E070E0CE01DF91CF910C94EE
:1009E000701A62817381848195810E94B41708C056
:1009F00060E070E0CB0104C061E070E080E090E076
:100A0000DF91CF910895CF93DF93FC018081918195
:100A10008330910534F48130910554F4892B19F118
:100A20001BC00697CCF4628173818481958123C0B9
:100A3000C281D3812097B9F0BE0188E291E00E9483
:100A4000B41C892BA1F04AE050E060E070E0CE01D8
:100A5000DF91CF910C94811B628173818481958198
:100A60000E94BB1708C060E070E0CB0104C061E0E9
:100A700070E080E090E0DF91CF910895FC018281E9
:100A800093810E94DA00009729F004960E940305E2
:100A9000862F089580E00895FC0120813181233064
:100AA000310534F421303105C4F4232B19F11DC074
:100AB000253031055CF025303105B9F46281738150
:100AC000848195810E94EA1790580895628173810C
:100AD000848195810E94EA1708958281938100970D
:100AE00049F060E070E00C94131962817381848195
:100AF0009581089560E070E0CB01089526E040E024
:100B000052EC61E070E083EE92E00E94D20E2CE3A2
:100B100041E06BE580E992E00E94D81263E371E066
:100B200080E992E00C9490120F931F93CF93C82FFB
:100B30008B0161E00E940F0D61E08C2F0E944B0D34
:100B4000B801110F880B990B0E946F0C60E08C2F7D
:100B5000CF911F910F910C944B0DCF93DF93EC012C
:100B60006881798188E090E00E94E902009729F08D
:100B7000FC011182108213821282EA81FB8130977C
:100B800051F0208131812115310511F0F901F9CFA2
:100B90009183808302C09B838A83DF91CF910895E4
:100BA000CF93DF93EB010E94AD05009779F0488168
:100BB00050E060E070E024E030E0FC013383228309
:100BC000448355836683778381E001C080E0DF91B1
:100BD000CF910895CF93DF93EB010E94AD0500976D
:100BE00079F04881598160E070E024E030E0FC0158
:100BF00033832283448355836683778381E001C0F6
:100C000080E0DF91CF910895CF93DF93EC0168816D
:100C100079818AE090E00E94E902009729F0FC01C6
:100C20001182108215821482EA81FB81309751F083
:100C3000208131812115310511F0F901F9CF91831E
:100C4000808302C09B838A83DF91CF9108959F9216
:100C5000AF92BF92CF92DF92EF92FF920F931F93CA
:100C6000CF93DF9300D000D000D0CDB7DEB7D82E21
:100C7000C92EE82EF92EF701819191917F010E94F2
:100C800093048C016BE7C7010E944B03882309F48E
:100C900045C06DE7C7010E944B0381114FC086E03C
:100CA000982E8D2D9C2D0E946D035C01892BB1F136
:100CB0006AE3C7010E944B03882381F11A821982DB
:100CC000BE016F5F7F4F8D2D9C2D0E94B40688233F
:100CD00029F1B501F801828193810E94DA00009721
:100CE00041F4C8010E9404060097C1F0FC01B382E0
:100CF000A282FE013196DC011496892D01900D929D
:100D00008A95E1F76DE7C7010E944B03811116C078
:100D10006CE2C7010E944B038111C3CF8091CA02CC
:100D200081110EC01092C1011092C0011092C30136
:100D30001092C20181E08093CA0202C0C80102C0C1
:100D400080EC91E026960FB6F894DEBF0FBECDBFC3
:100D5000DF91CF911F910F91FF90EF90DF90CF9097
:100D6000BF90AF909F900895EF92FF920F931F93C3
:100D7000CF93DF931F92CDB7DEB7FC019681992305
:100D800009F451C08B017F01915096838281938138
:100D90000E941C03F70193838283FC0180818B35C1
:100DA00019F08B3771F01EC0C7010E941D07FC01AE
:100DB00020813181232B11F420E030C026E030E087
:100DC0000AC0C7010E942706FC0120813181232B24
:100DD00099F327E030E0F801318320839383828305
:100DE00021E01CC021E0873219F0823209F020E0B6
:100DF000C70129830E946D0329810097E9F222230C
:100E000031F042E050E0F8015183408305C021E019
:100E100030E0F8013183208393838283F701868158
:100E20008F5F868301C020E0822F0F90DF91CF91EA
:100E30001F910F91FF90EF900895BF92CF92DF9294
:100E4000EF92FF920F931F93CF93DF9300D000D0C8
:100E500000D0CDB7DEB7D82EC92E082F192FF80134
:100E6000819191918F010E947D047C016BE5C80105
:100E70000E944B03882369F16DE5C8010E944B0372
:100E800081112AC086E0B82E1A821982BE016F5FD6
:100E90007F4F8D2D9C2D0E94B4068823D1F0C70171
:100EA0000E94AD050097A9F0FE013196DC01129673
:100EB0008B2D01900D928A95E1F76DE5C8010E9496
:100EC0004B03811109C06CE2C8010E944B038111E0
:100ED000DBCF0E94F80201C0C70126960FB6F89436
:100EE000DEBF0FBECDBFDF91CF911F910F91FF905D
:100EF000EF90DF90CF90BF900895EF92FF920F9305
:100F00001F93CF93DF938C01EB017A01DC011296E2
:100F10008D919C9113970E94DA00FC01892B41F47A
:100F2000C8010E940406FC01892B89F0D383C28387
:100F3000D7018C9124E030E03583248390E0A0E059
:100F4000B0E086839783A087B18781E001C080E00D
:100F5000DF91CF911F910F91FF90EF900895EF9245
:100F6000FF920F931F93CF93DF938C01EB017A01D4
:100F7000DC0112968D919C9113970E94DA00FC017E
:100F8000892B41F4C8010E940406FC01892B89F0D9
:100F9000D383C283D7018C9190E0A0E0B0E024E03D
:100FA00030E03583248386839783A087B18781E0EF
:100FB00001C080E0DF91CF911F910F91FF90EF90E2
:100FC0000895FC01828193810E94CE00009729F050
:100FD00002960E940305862F089580E00895FC0183
:100FE000828193810E94CE00009729F002960E9490
:100FF0000305CB01089580E090E00895E0E9F2E078
:1010000084EA91E0918380838AE0828382E0838313
:10101000148281E080938B0316828FE18783108690
:1010200008955F926F927F928F929F92AF92BF923C
:10103000CF92DF92EF92FF920F931F93CF93DF93A4
:10104000CDB7DEB7CC59D1400FB6F894DEBF0FBE96
:10105000CDBF83EE92E00E940C0E181619060CF01C
:10106000CEC127EC30E048EC51E06AE083EE92E03C
:101070000E94F60F8DE791E09A838983C553DF4F75
:1010800019821882CB5CD040CE010196C353DF4F4A
:1010900099838883CD5CD04088EC91E0C153DF4FC9
:1010A00099838883CF5CD040CF52DF4F9983888368
:1010B000C15DD0408AE0CD52DF4F8883C35DD04010
:1010C000CE0183539F4F0E9427067C01FC01808143
:1010D0009181892B39F464E471E083EE92E00E94FF
:1010E000FA0D6BC369E571E0C7010E943E0580936C
:1010F0009F026EE571E0C7010E943E058093A00249
:1011000063E671E0C7010E943E058093A102B12C05
:10111000C12CD12C0B2D10E068E671E0C7010E94B4
:101120000A03B8010E94E10768E671E08A30E1F441
:10113000C7010E940A03B8010E94E10796012156E7
:101140003D4F4901F901838368E671E0C7010E94C0
:101150000A03B8016F5F7F4F0E94E107F4018483A7
:10116000F2E0CF0ED11C39C1C7010E940A03B801B9
:101170000E94E1078431A9F068E671E0C7010E948E
:101180000A03B8010E94E107853159F068E671E071
:10119000C7010E940A03B8010E94E107863109F0E5
:1011A00064C068E671E0C7010E940A03B8010E94AA
:1011B000E107960121563D4F3901F901838346012C
:1011C000FFEF8F1A9F0A68E671E0C7010E940A03C9
:1011D000B8010E94E10768E671E08431C1F4C701FB
:1011E0000E940A03B8016F5F7F4FFC0182819381E7
:1011F0000E94CE00009721F002960E94B70402C020
:1012000060E070E070939C0260939B0220C0C70175
:101210000E940A03B8010E94E10768E671E0853187
:1012200051F0C7010E940A03B8010E94E10786310C
:1012300071F468E671E0C7010E940A03B8016F5FAC
:101240007F4F0E94EF0790939C0280939B02F401D2
:10125000E156FD4F80919B02838380919C02F301B4
:101260008583F3E0CF0ED11CB8C068E671E0C701FA
:101270000E940A03B8010E94E1078832F9F068E68B
:1012800071E0C7010E940A03B8010E94E107893298
:10129000A9F068E671E0C7010E940A03B8010E9444
:1012A000E1078A3259F068E671E0C7010E940A033B
:1012B000B8010E94E1078B3209F091C068E671E045
:1012C000C7010E940A03B8010E94E107F601E15636
:1012D000FD4F838368E671E0C7010E940A03B801ED
:1012E0000E94E10768E671E0883211F5C7010E94AB
:1012F0000A03B8016F5F7F4FFC01828193810E94D6
:10130000CE00009721F002960E94B70403C060E06F
:1013100070E0CB0160939B0270939C0280939D02CE
:1013200090939E02EBE9F2E0D601AD55BD4F4CC063
:10133000C7010E940A03B8010E94E10768E671E054
:10134000893289F4C7010E940A03B8016F5F7F4F99
:10135000FC01828193810E94CE000097C1F2029627
:101360000E940305D7CFC7010E940A03B8010E945B
:10137000E10768E671E08A3251F0C7010E940A0372
:10138000B8010E94E1078B3269F668E671E0C70197
:101390000E940A03B8016F5F7F4FFC018281938135
:1013A0000E94CE00009721F002960E944C0503C0D7
:1013B00060E070E0CB0160939B0270939C0280938D
:1013C0009D0290939E02AECF81918D9322E0EF39E2
:1013D000F207D1F735E0C30ED11C81E001C080E0F7
:1013E000B394B394811196CE00E02CE34FE952E020
:1013F00060919F0280E992E00E94FD14CEC13DE71A
:10140000E32E31E0F32EC353DF4FF982E882CD5C47
:10141000D040C956DE4F19821882C759D140CE013B
:1014200083539F4F0E94930480E992E00E943C10F6
:10143000882309F4C2C18BE2ECE8F3E0AFE9B2E043
:1014400001900D928A95E1F7FA82E982C553DF4F48
:1014500019821882CB5CD040CE0101960E94930481
:101460007C0149E853E069E571E00E947D0740EAAC
:1014700052E06EE571E0C7010E94AF0741EA52E019
:1014800063E671E0C7010E94AF076DE671E0F70106
:10149000828193810E94DA00009751F4C7010E9473
:1014A0000406009711F12DE631E0FC01338322831D
:1014B000409183035091840357FD07C0052E000C13
:1014C000660B770B24E030E009C051954195510936
:1014D000052E000C660B770B25E030E0FC01358310
:1014E000248346835783608771874AE853E062E725
:1014F00071E0C7010E947D07F7018081918100970B
:1015000029F40E94F802182F092F28C00E947D0498
:101510006C0168E671E0F701828193810E94DA0034
:10152000009751F4C7010E9404060097A9F028E62D
:1015300031E0FC0133832283F60120813181232BAA
:1015400019F420E030E003C0860126E030E0FC0121
:1015500035832483068317831C2D0D2D512C9AE08F
:10156000A92EB12C24E0822E912C652C712C930194
:1015700021563D4F6901F901838196EF980F933011
:10158000F0F48481C756DE4F8883C959D140BE012B
:1015900067567E4F812F902F0E94D005F6018381E0
:1015A000C756DE4F8883C959D140BE0167567E4F6A
:1015B000812F902F0E94D00582E0582EC6C09CEE4D
:1015C000980F933008F049C0C756DE4F8883C95939
:1015D000D140BE0167567E4F812F902F0E94D005CB
:1015E000F301ED55FD4F8081918190939C02809392
:1015F0009B02F6018381843121F5812F902F0E9477
:10160000AD05009741F140919B0250919C0257FD1E
:1016100007C0052E000C660B770B24E030E009C0F4
:10162000519541955109052E000C660B770B25E06D
:1016300030E0FC01338322834483558366837783C0
:101640000AC0853111F0863131F46BE972E0812FE7
:10165000902F0E94EA05F3E077C098ED980F943040
:1016600008F078C0C756DE4F8883C959D140BE0103
:1016700067567E4F812F902F0E94D005F301ED55C4
:10168000FD4F80819181A281B38180939B029093D1
:101690009C02A0939D02B0939E02F6018381883242
:1016A00009F5812F902F0E94AD05009709F44BC0DA
:1016B00040919B0250919C0260919D0270919E020C
:1016C00077FD03C024E030E009C070956095509527
:1016D00041955F4F6F4F7F4F25E030E0FC01338332
:1016E000228313C08932B1F4812F902F0E94AD055F
:1016F000009749F140919B0250919C0260919D029C
:1017000070919E02FC01938282824483558366839A
:10171000778319C08A3211F08B32A9F4812F902F70
:101720000E94AD05009779F040919B0250919C0278
:1017300060919D0270919E02FC01B382A28244835B
:10174000558366837783F5E05F0E80918A03581690
:1017500008F40BCF83EE92E0C756DE4F998388835F
:10176000C959D140C556DE4F19821882CB59D14094
:10177000BE0167567E4FC7010E944B0483EE92E084
:101780000E94F60D6AE070E089E00E94940564E62C
:1017900070E080E090E00E946F0C6AE070E089E009
:1017A0000E94940564E670E080E090E00E946F0C77
:1017B0006AE070E089E00E949405C456DE4F0FB6DF
:1017C000F894DEBF0FBECDBFDF91CF911F910F9177
:1017D000FF90EF90DF90CF90BF90AF909F908F9051
:1017E0007F906F905F9008951F920F920FB60F92A7
:1017F00011242F933F938F939F93AF93BF93809127
:10180000DB029091DC02A091DD02B091DE0230910A
:10181000DA0223E0230F2D3720F40196A11DB11D1C
:1018200005C026E8230F0296A11DB11D2093DA0200
:101830008093DB029093DC02A093DD02B093DE0282
:101840008091DF029091E002A091E102B091E2026A
:101850000196A11DB11D8093DF029093E002A09339
:10186000E102B093E202BF91AF919F918F913F91BE
:101870002F910F900FBE0F901F9018952FB7F894CF
:101880006091DB027091DC028091DD029091DE02BA
:101890002FBF08953FB7F8948091DF029091E00246
:1018A000A091E102B091E20226B5A89B05C02F3FAE
:1018B00019F00196A11DB11D3FBFBA2FA92F982F76
:1018C0008827820F911DA11DB11DBC01CD0142E0F1
:1018D000660F771F881F991F4A95D1F708958F9239
:1018E0009F92AF92BF92CF92DF92EF92FF926B01E5
:1018F0007C010E944A0C4B015C01C114D104E1043B
:10190000F10401F10E941E160E944A0CDC01CB0179
:1019100088199909AA09BB09883E9340A105B10518
:1019200060F321E0C21AD108E108F10888EE880EC0
:1019300083E0981EA11CB11CC114D104E104F10480
:1019400019F7DBCFFF90EF90DF90CF90BF90AF9073
:101950009F908F900895789484B5826084BD84B5FB
:10196000816084BD85B5826085BD85B5816085BD9A
:10197000EEE6F0E0808181608083E1E8F0E01082B3
:10198000808182608083808181608083E0E8F0E0F4
:10199000808181608083E1EBF0E0808184608083DE
:1019A000E0EBF0E0808181608083EAE7F0E0808115
:1019B0008460808380818260808380818160808375
:1019C0008081806880831092C1000895833081F007
:1019D00028F4813099F08230A1F008958730A9F081
:1019E0008830B9F08430D1F4809180008F7D03C0BD
:1019F000809180008F7780938000089584B58F77E1
:101A000002C084B58F7D84BD08958091B0008F772A
:101A100003C08091B0008F7D8093B0000895CF9374
:101A2000DF9390E0FC01E457FF4F2491FC01E05666
:101A3000FF4F8491882361F190E0880F991FFC018A
:101A4000E853FF4FC591D491FC01E254FF4FA5919B
:101A5000B491611109C09FB7F894888120958223C1
:101A60008883EC912E230BC0623061F49FB7F89409
:101A70003881822F809583238883EC912E2B2C93A1
:101A80009FBF06C08FB7F894E8812E2B28838FBFA5
:101A9000DF91CF9108951F93CF93DF93282F30E0EC
:101AA000F901E858FF4F8491F901E457FF4FD491B1
:101AB000F901E056FF4FC491CC23C9F0162F8111D4
:101AC0000E94E60CEC2FF0E0EE0FFF1FE254FF4FF8
:101AD000A591B4918FB7F894111105C09C91ED2F89
:101AE000E095E92302C0EC91ED2BEC938FBFDF91E1
:101AF000CF911F910895CF93DF93282F30E0F90104
:101B0000E858FF4F8491F901E457FF4FD491F90150
:101B1000E056FF4FC491CC2391F081110E94E60C56
:101B2000EC2FF0E0EE0FFF1FEC54FF4FA591B491A6
:101B3000EC91ED2381E090E021F480E002C080E0B0
:101B400090E0DF91CF91089508950E94AB0C0E9420
:101B5000A40D0E947E05CAE3DEE00E9411082097D2
:101B6000E1F30E943A0EF9CFCF92DF92EF92FF920B
:101B70000F931F93CF93DF936C017A018B01C0E029
:101B8000D0E0CE15DF0589F0D8016D918D01D60129
:101B9000ED91FC910190F081E02DC6010995892B12
:101BA00011F47E0102C02196ECCFC701DF91CF91E5
:101BB0001F910F91FF90EF90DF90CF9008956115E6
:101BC000710579F0FB0101900020E9F73197AF0131
:101BD000461B570BDC01ED91FC910280F381E02D57
:101BE000099480E090E008950C94DF0D6FE771E0B8
:101BF0000C94DF0D0F931F93CF93DF93EC010E94A2
:101C0000DF0D8C01CE010E94F60D800F911FDF9138
:101C1000CF911F910F910895FC01918D228D892FF5
:101C200090E0805C9F4F821B91098F7399270895E4
:101C3000FC01918D828D981731F0828DE80FF11D96
:101C4000858D90E008958FEF9FEF0895FC01918DB1
:101C5000828D981761F0828DDF01A80FB11D5D960E
:101C60008C91928D9F5F9F73928F90E008958FEF7C
:101C70009FEF08958FE89FE0892B49F080E090E086
:101C8000892B29F00E948F0F81110C940000089578
:101C9000FC01848DDF01A80FB11DA35ABF4F2C9109
:101CA000848D90E001968F739927848FA689B789D8
:101CB0002C93A089B1898C9180648C93938D848DB1
:101CC000981306C00288F389E02D80818F7D808380
:101CD0000895CF93DF93EC01888D8823C9F0EA89BA
:101CE000FB89808185FD05C0A889B9898C9186FD15
:101CF0000FC00FB607FCF5CF808185FFF2CFA88912
:101D0000B9898C9185FFEDCFCE010E94480EE7CFB7
:101D1000DF91CF910895EF92FF920F931F93CF938E
:101D2000DF93EC0181E0888F9B8D8C8D981305C02B
:101D3000E889F989808185FD24C0F62E0B8D10E09D
:101D40000F5F1F4F0F731127E02E8C8DE8120CC010
:101D50000FB607FCFACFE889F989808185FFF5CFB6
:101D6000CE010E94480EF1CF8B8DFE01E80FF11DD0
:101D7000E35AFF4FF0820B8FEA89FB8980818062F2
:101D800007C0EE89FF896083E889F98980818064D2
:101D9000808381E090E0DF91CF911F910F91FF90C0
:101DA000EF900895CF92DF92EF92FF921F93CF931F
:101DB000DF93EC016A017B01122FE889F98982E047
:101DC00080834115514E61057105B1F060E079E005
:101DD0008DE390E0A70196010E948E16DA01C901F9
:101DE0000197A109B109B695A79597958795AC017B
:101DF000411580E15807A8F0E889F989108260E868
:101E000074E88EE190E0A70196010E948E16BA0157
:101E1000A901415051096109710976956795579556
:101E20004795EC85FD855083EE85FF854083188EB0
:101E3000EC89FD891083EA89FB8980818061808338
:101E4000EA89FB89808188608083EA89FB898081B7
:101E500080688083EA89FB8980818F7D8083DF9120
:101E6000CF911F91FF90EF90DF90CF9008951F9238
:101E70000F920FB60F9211242F938F939F93EF938E
:101E8000FF93E091F302F091F4028081E091F90276
:101E9000F091FA0282FD12C090818091FC028F5F66
:101EA0008F732091FD02821751F0E091FC02F0E067
:101EB000ED51FD4F958F8093FC0201C08081FF9111
:101EC000EF919F918F912F910F900FBE0F901F90C8
:101ED00018951F920F920FB60F9211242F933F93D4
:101EE0004F935F936F937F938F939F93AF93BF9322
:101EF000EF93FF9383EE92E00E94480EFF91EF91E3
:101F0000BF91AF919F918F917F916F915F914F9111
:101F10003F912F910F900FBE0F901F90189583EE59
:101F200092E00E940C0E21E0892B09F420E0822F20
:101F30000895E3EEF2E01382128288EE93E0A0E0CF
:101F4000B0E084839583A683B78384E991E091838D
:101F5000808385EC90E09587848784EC90E0978778
:101F6000868780EC90E0918B808B81EC90E0938B66
:101F7000828B82EC90E0958B848B86EC90E0978B43
:101F8000868B118E128E138E148E08950F931F93CD
:101F9000CF93DF93EC010E943E0C688779878A8794
:101FA0009B87E881F9810680F781E02DCE010995B4
:101FB00097FF17C00E943E0C088519852A853B852E
:101FC000DC01CB01801B910BA20BB30B0C811D819B
:101FD0002E813F8180179107A207B30710F38FEF7F
:101FE0009FEFDF91CF911F910F910895AF92BF9214
:101FF000CF92DF92EF92FF920F931F93CF93DF93D5
:1020000021153105D1F079015C016A01C0E0D0E011
:10201000062F660F110BC5010E94C60F97FF02C065
:10202000CE010DC080179107D9F3F60181936F019E
:102030002196CE15DF0579F7F3CF80E090E0DF91B0
:10204000CF911F910F91FF90EF90DF90CF90BF90B5
:10205000AF900895089581E080938203809180037A
:1020600090918103DC01ED91FC910484F585E02DD4
:102070000995109282030895F89420918B032330E0
:1020800021F42091870321110FC020918B0323306D
:1020900011F4789407C0DC01ED91FC910288F3897A
:1020A000E02D099580E00895DC01ED91FC91048814
:1020B000F589E02D61E0099581E00895CF93DF93E4
:1020C000EC0161E08A810E944B0D89858CBD8A8577
:1020D0008DBD80918203811101C07894DF91CF91F1
:1020E0000895FC01F8948CB581878DB582878CB5F5
:1020F000837F8CBD8CB58F7D8CBD8CB58C7F8CBD6A
:102100008DB58E7F8DBD60E082810C944B0D8EBDB0
:1021100000000DB407FEFDCF8EB50895CF93DF9379
:102120001F92CDB7DEB7DC01ED91FC910480F58103
:10213000E02D698309956981882361F08091890385
:10214000861711F06F3F29F49091850381E091117A
:1021500001C080E00F90DF91CF9108952F923F92C0
:102160004F925F926F927F928F929F92AF92BF92A7
:10217000CF92DF92EF92FF920F931F93CF93DF9353
:102180006C01D62F3A01F22E102FC0E08E2C912C2C
:10219000A12CB12CD601ED91FC910190F081E02DA4
:1021A00001E02F2DA3016D2FC60109950E943E0C61
:1021B0001B012C010E943E0CDC01CB01821993090A
:1021C000A409B50988159905AA05BB0538F46D2F32
:1021D000C6010E948E10882369F304C0CF5F1C17CC
:1021E000C8F680E0DF91CF911F910F91FF90EF90A3
:1021F000DF90CF90BF90AF909F908F907F906F9027
:102200005F904F903F902F900895EF92FF921F9311
:10221000CF93DF931F92CDB7DEB77C01DC01ED9148
:10222000FC91008CF18DE02D698309956981862FE1
:102230008F770E94871080E00E948710182FD701A7
:10224000ED91FC91028CF38DE02DC7010995812F52
:102250000F90DF91CF911F91FF90EF9008950F9312
:102260001F93CF93DF9300D0CDB7DEB78C01DC0195
:10227000ED91FC91008CF18DE02D4A8369830995E5
:102280006981862F80680E9487104A81842F0E946E
:102290008710D801ED91FC91028CF38DE02DC801DF
:1022A0000F900F90DF91CF911F910F9109941F9381
:1022B000CF93DF9320918B03621709F45DC0162F33
:1022C000EC016230E9F168F4662309F440C0613042
:1022D00009F052C061E00E940511837E482F4460DE
:1022E0003BC06330B9F0643009F046C061E00E9441
:1022F0000511837E482F4C6061E0CE010E942F11B2
:102300008885882369F1E881F9810688F789E02DBD
:1023100061E013C061E00E940511837E482F406197
:1023200061E0CE010E942F1188858823C9F0E881E1
:10233000F9810688F789E02D60E0CE01099510C08B
:1023400061E00E940511837E482F486005C061E06E
:102350000E940511482F437E61E0CE010E942F119B
:1023600080918B03811106C067E2CE010E940511A6
:1023700087FFF6CF10938B03DF91CF911F910895C4
:10238000CF93DF93EC01603208F06FE16F838885B3
:10239000882311F066956F8361E1CE010E940511DB
:1023A000807E9F81482F492B61E1CE01DF91CF9143
:1023B0000C942F11CF92DF92EF92FF920F931F9305
:1023C000CF93DF93EC01F62ED42EC52E122FE88189
:1023D000F9810488F589E02D61E0099567E2CE0175
:1023E0000E94051187FFFACF40E065E2CE010E940E
:1023F0002F111E3308F01DE3E11004C0002321F06B
:1024000000E403C000E801C000E0E881F981008C2D
:10241000F18DE02DCE01099580E80E94871083E0C0
:10242000810F0E9487108F2D0E9487108D810E943E
:102430008710802F0E9487100D2DED2CFC2C8E2DE7
:10244000801B811730F4F70181917F010E94871072
:10245000F6CFE881F981028CF38DE02DCE0109954C
:10246000E881F9810488F589E02D64E0CE010995C1
:102470000E943E0C6B017C018B810E947B0D892B9D
:1024800081F0E881F9810488F589E02D61E0CE01D1
:10249000DF91CF911F910F91FF90EF90DF90CF9040
:1024A00009940E943E0CDC01CB018C199D09AE09F8
:1024B000BF09883E9340A105B105F0F2E2CFCF936A
:1024C000DF93EC0110928A03109289031092880323
:1024D0001092870310928603109285031092840352
:1024E0001092830368E20E94051182FF0AC06DE327
:1024F000CE010E940511482F44606DE3CE010E9479
:102500002F1140E465E2CE010E942F11E881F9818C
:102510000488F589E02D63E0CE01DF91CF91099425
:10252000CF92DF92EF92FF920F931F93CF93DF939F
:10253000EC018B01E881F9810488F589E02D61E0E7
:10254000099501151105F1F0E881F981008CF18DF3
:10255000E02DCE0109958EEB0E948710780168016D
:1025600080E1C80ED11CF70181917F010E94871084
:10257000EC14FD04C1F7E881F981028CF38DE02DA4
:10258000CE0109956DE3CE010E9405118E7F41E0D9
:10259000012B09F440E0482B6DE3CE01DF91CF9190
:1025A0001F910F91FF90EF90DF90CF900C942F111F
:1025B0008F929F92AF92BF92CF92DF92EF92FF9253
:1025C0000F931F93CF93DF93CDB7DEB7AE970FB6C0
:1025D000F894DEBF0FBECDBF8C01E42E8EE2AE01BB
:1025E0004F5F5F4F6A01DA01E82F1D92EA95E9F724
:1025F00091E0998334E03A8342E04B8393E09D83FA
:102600004E833F8340E4488735E039879A8796E0D8
:102610009B8793E39C8737E03D8798E09F8799E00D
:10262000998B99E19B8B92E49C8B55E25D8B4E8B51
:1026300046E24F8B388F38E2398F30E13A8F39E2FA
:102640003B8F3CED3C8F8D8F88E88E8F8FE28F8F94
:102650008DE288A380E389A337E33BA330E93CA361
:1026600038E33DA39EA39CE39FA39FE898A79DE327
:1026700099A792E19AA79FE69BA78CA78FEF8DA7BA
:102680006F3131F06B3231F0663531F084EE05C0D8
:102690008EE403C08CE601C089ED8E876F3121F096
:1026A0006B3221F0663521F080EC03C080E401C07C
:1026B00080E0888B2AA361E0D80112968C910E9459
:1026C0004B0D61E0F80182810E940F0D0E94E81518
:1026D0000E943E0C4B015C014AEA6FE2C8010E9475
:1026E0002F116FE2C8010E9405118A3A61F00E9421
:1026F0003E0CDC01CB0188199909AA09BB09C297D4
:10270000A105B10548F30E943E0C4B015C0145E573
:102710006FE2C8010E942F116FE2C8010E940511EB
:10272000853561F00E943E0CDC01CB0188199909C6
:10273000AA09BB09C297A105B10548F3F12CF6011E
:10274000EF0DF11DEF0DF11D60816F3F31F0418103
:10275000C8010E942F11F394F2CF60E070E0C8012D
:102760000E949012D801ED91FC9111970084F1859F
:10277000E02D18966C91C8010995D801ED91FC9156
:102780000488F589E02D61E0C80109950E943E0C9E
:102790004B015C0167E2C8010E94051187FD0CC076
:1027A0000E943E0CDC01CB0188199909AA09BB09DA
:1027B000C297A105B10570F30E943E0CDC01CB016C
:1027C00088199909AA09BB09C297A105B10598F40E
:1027D0001092820343E050E06BE270E1F8018481E3
:1027E0000E9420161093810300938003D801159650
:1027F000EC9281E001C080E0AE960FB6F894DEBFA7
:102800000FBECDBFDF91CF911F910F91FF90EF9041
:10281000DF90CF90BF90AF909F908F900895CF930F
:10282000DF93EC0161110DC064E2CE010E9405113D
:1028300090E091958195910995958795DF91CF913C
:10284000089541E063E20E942F1163E2CE010E94ED
:10285000051181FFFACFE8CFCF93DF9320918B034F
:102860002330A9F420918703211111C0EC0160E00D
:102870000E940F14863A9F4F54F4E881F98104882E
:10288000F589E02D61E0CE01099581E001C080E08D
:10289000DF91CF910895EF92FF921F93CF93DF9333
:1028A000EC0180918B03833001F568E2CE010E9438
:1028B000051182FD28C019C080918A038D3330F440
:1028C000E0918A03F0E0E457FC4F1082E881F9813F
:1028D000028CF38DE02DCE010995E881F981048801
:1028E000F589E02D63E0CE01099560E0CE010E94FC
:1028F0000F149093840380938303DF91CF911F91F2
:10290000FF90EF900895E881F9810488F589E02D22
:1029100061E0CE010995E881F981008CF18DE02D0F
:10292000CE01099580E00E94871080E00E94871008
:1029300080938703809187038334D0F48091870349
:102940008093870380E00E948710809388038E81A4
:10295000811109C0909188038D81981721F0809191
:1029600088038F3F39F480918703833018F017C0B4
:1029700082E4E6CF10928703E881F981028CF38D1F
:10298000E02DCE010995E881F9810288F389E02DD7
:10299000CE01DF91CF911F91FF90EF90099480912C
:1029A0008703835080938A0380E00E94871080937E
:1029B000890380E00E948710982F90789093850378
:1029C000982F907490938603E881F9810684F785A7
:1029D000E02D682FCE01099510E080918A03181729
:1029E00008F06ACFE12EF12C80E00E948710F701F9
:1029F000E457FC4F80831F5FF0CF8F929F92AF927E
:102A0000BF92CF92DF92EF92FF920F931F93CF93DB
:102A1000DF93EC01162F6A01F22E6DE30E9405117F
:102A2000482F44606DE3CE010E942F110E943E0C9E
:102A30004B015C01CE010E942C148823C1F0E88177
:102A4000F9810088F189E02DE12C2F2DA601612F5D
:102A5000CE010995DF91CF911F910F91FF90EF90DB
:102A6000DF90CF90BF90AF909F908F9008950E947D
:102A70003E0CDC01CB0188199909AA09BB09883EE3
:102A80009340A105B105D8F6E881F9810480F5816C
:102A9000E02DCE010995CECF4F925F926F927F923B
:102AA000AF92BF92CF92DF92EF92FF920F931F935C
:102AB000CF93DF93EC015B01F42E1092860310910B
:102AC0008903C0908303D09084036DE30E940511B5
:102AD000482F44606DE3CE010E942F110E943E0CEE
:102AE0002B013C01CE010E942C14882311F110937C
:102AF0008903E881F9810088F189E02DEE24E394CF
:102B000000E02F2DA501612FCE010995D0928403FD
:102B1000C0928303DF91CF911F910F91FF90EF90AF
:102B2000DF90CF90BF90AF907F906F905F904F906D
:102B300008950E943E0CDC01CB0184199509A60979
:102B4000B709883E9340A105B10588F6E881F9816F
:102B50000480F581E02DCE010995C4CFCF93DF939A
:102B6000EC016887611102C04AE101C04FE063E1F6
:102B7000CE010E942F118885882341F061E1CE01AA
:102B80000E9405118F71482F406602C04F81406836
:102B900061E1CE01DF91CF910C942F111F93CF9360
:102BA000DF93EC01162F611102C045E501C04DE530
:102BB0006AE5CE010E942F11111102C040E701C049
:102BC0004CE76CE5CE01DF91CF911F910C942F1152
:102BD000CF93CFB7F8948091C903811127C0EAEA57
:102BE000F0E08491E6E9F0E09491E82FF0E0EE0F58
:102BF000FF1FE853FF4FA591B491EC91E92321F415
:102C000061E08AE00E944B0D61E08AE00E940F0DB6
:102C10008CB580618CBD8CB580648CBD61E08DE02D
:102C20000E940F0D61E08BE00E940F0D8091C9039F
:102C30008F5F8093C903CFBFCF9108950895089502
:102C40008230E8F4E82FF0E0EE0FFF1FE050FF4F76
:102C500071836083813041F0809169008C7F482BC3
:102C600040936900E89A089580916900440F551FC8
:102C7000440F551F837F482B40936900E99A0895BC
:102C80001F920F920FB60F9211242F933F934F93E1
:102C90005F936F937F938F939F93AF93BF93EF93C4
:102CA000FF93E0910001F09101010995FF91EF91EF
:102CB000BF91AF919F918F917F916F915F914F9154
:102CC0003F912F910F900FBE0F901F9018951F925C
:102CD0000F920FB60F9211242F933F934F935F9350
:102CE0006F937F938F939F93AF93BF93EF93FF93D4
:102CF000E0910201F09103010995FF91EF91BF91DD
:102D0000AF919F918F917F916F915F914F913F9183
:102D10002F910F900FBE0F901F901895A1E21A2EC1
:102D2000AA1BBB1BFD010DC0AA1FBB1FEE1FFF1F6F
:102D3000A217B307E407F50720F0A21BB30BE40BBF
:102D4000F50B661F771F881F991F1A9469F7609506
:102D50007095809590959B01AC01BD01CF010895C0
:102D6000EE0FFF1F0590F491E02D09940E94C1160B
:102D7000A59F900DB49F900DA49F800D911D1124CF
:102D80000895A29FB001B39FC001A39F700D811D44
:102D90001124911DB29F700D811D1124911D089564
:102DA0005058BB27AA270E94E8160C9462180E946C
:102DB000541838F00E945B1820F039F49F3F19F442
:102DC00026F40C9451180EF4E095E7FB0C944B1884
:102DD000E92F0E94731858F3BA1762077307840724
:102DE000950720F079F4A6F50C9495180EF4E0956B
:102DF0000B2EBA2FA02D0B01B90190010C01CA01B5
:102E0000A0011124FF27591B99F0593F50F4503E5F
:102E100068F11A16F040A22F232F342F4427585F51
:102E2000F3CF469537952795A795F0405395C9F769
:102E30007EF41F16BA0B620B730B840BBAF0915021
:102E4000A1F0FF0FBB1F661F771F881FC2F70EC0C0
:102E5000BA0F621F731F841F48F487957795679593
:102E6000B795F7959E3F08F0B0CF9395880F08F07F
:102E70009927EE0F9795879508950E94271808F4D3
:102E800081E008950E9456170C9462180E945B1806
:102E900058F00E94541840F029F45F3F29F00C9438
:102EA0004B1851110C9496180C9451180E947318D9
:102EB00068F39923B1F3552391F3951B550BBB2769
:102EC000AA2762177307840738F09F5F5F4F220FAE
:102ED000331F441FAA1FA9F335D00E2E3AF0E0E8A5
:102EE00032D091505040E695001CCAF72BD0FE2FEF
:102EF00029D0660F771F881FBB1F26173707480783
:102F0000AB07B0E809F0BB0B802DBF01FF2793583A
:102F10005F4F3AF09E3F510578F00C944B180C949B
:102F200096185F3FE4F3983ED4F3869577956795BE
:102F3000B795F7959F5FC9F7880F911D969587956F
:102F400097F90895E1E0660F771F881FBB1F62178E
:102F500073078407BA0720F0621B730B840BBA0B4C
:102F6000EE1F88F7E09508950E94BB176894B11191
:102F70000C94961808950E947B1888F09F5798F03B
:102F8000B92F9927B751B0F0E1F0660F771F881F6E
:102F9000991F1AF0BA95C9F714C0B13091F00E9488
:102FA0009518B1E008950C949518672F782F88270D
:102FB000B85F39F0B93FCCF3869577956795B395AF
:102FC000D9F73EF490958095709561957F4F8F4F1E
:102FD0009F4F0895E89409C097FB3EF49095809523
:102FE000709561957F4F8F4F9F4F9923A9F0F92FCF
:102FF00096E9BB279395F695879577956795B7954D
:10300000F111F8CFFAF4BB0F11F460FF1BC06F5F32
:103010007F4F8F4F9F4F16C0882311F096E911C044
:10302000772321F09EE8872F762F05C0662371F065
:1030300096E8862F70E060E02AF09A95660F771F79
:10304000881FDAF7880F9695879597F90895990F55
:103050000008550FAA0BE0E8FEEF16161706E80762
:10306000F907C0F012161306E407F50798F0621B83
:10307000730B840B950B39F40A2661F0232B242B58
:10308000252B21F408950A2609F4A140A6958FEF77
:10309000811D811D089597F99F6780E870E060E0C9
:1030A00008959FEF80EC089500240A9416161706E1
:1030B00018060906089500240A9412161306140629
:1030C00005060895092E0394000C11F4882352F08C
:1030D000BB0F40F4BF2B11F460FF04C06F5F7F4F44
:1030E0008F4F9F4F089557FD9058440F551F59F02B
:1030F0005F3F71F04795880F97FB991F61F09F3FE5
:1031000079F087950895121613061406551FF2CF0D
:103110004695F1DF08C0161617061806991FF1CF5D
:1031200086957105610508940895E894BB27662784
:103130007727CB0197F908950E94271808F48FEF9D
:1031400008950E94B4180C9462180E94541838F024
:103150000E945B1820F0952311F00C944B180C94EE
:10316000511811240C9496180E94731870F3959FAF
:10317000C1F3950F50E0551F629FF001729FBB276E
:10318000F00DB11D639FAA27F00DB11DAA1F649F0A
:103190006627B00DA11D661F829F2227B00DA11DBD
:1031A000621F739FB00DA11D621F839FA00D611D43
:1031B000221F749F3327A00D611D231F849F600D64
:1031C000211D822F762F6A2F11249F5750409AF08D
:1031D000F1F088234AF0EE0FFF1FBB1F661F771F19
:1031E000881F91505040A9F79E3F510580F00C94E4
:1031F0004B180C9496185F3FE4F3983ED4F38695F1
:1032000077956795B795F795E7959F5FC1F7FE2B83
:10321000880F911D9695879597F908950E94271814
:10322000880B990B0895A0E0B0E0E9E1F9E10C9476
:10323000D41CEC017B016115710519F0DB018D9344
:103240009C938E010F5F1F4F7880872D90E00E9426
:10325000931C892B11F0E801F4CFBDE27B1205C06D
:103260000F5F1F4F7980C1E008C0EBE27E1204C0FF
:103270008E010E5F1F4F7980C0E06801F1E0CF1A28
:10328000D10843E050E06AED70E0C6010E949C1C4A
:10329000892BF1F4680122E0C20ED11C45E050E018
:1032A00065ED70E0C6010E949C1C892B21F4680129
:1032B00087E0C80ED11CE114F10419F0D701CD92BA
:1032C000DC92C111FFC060E070E080E89FE703C1BD
:1032D00043E050E062ED70E0C6010E949C1C892B27
:1032E00051F4E114F10409F4F2C00E5F1F4FF7012D
:1032F00011830083ECC0680160E070E0CB0100E066
:1033000010E0F601D0EDD70DDA3058F52C2F226001
:10331000622E2C2F2870C2FF05C0211128C00F5F1C
:103320001F4F25C0222311F001501109A5E0B0E084
:103330009B01AC010E94B6164B015C01880C991CE4
:10334000AA1CBB1CC501B4016D0F711D811D911D0F
:103350006839A9E97A078A07A9E19A0740F0C660A7
:1033600005C0DE3F51F4C3FD44C0C8606C2EBFEF02
:10337000CB1ADB0A7080C62DC4CF2D2F2F7D2531AF
:10338000C1F540814D3211F4C06106C04B3221F0CD
:10339000319621E030E006C03296D60111964C916C
:1033A00022E030E0A0EDA40FAA3018F0E21BF30BEE
:1033B00020C040E050E04038BCE05B075CF49A017C
:1033C000220F331F220F331F420F531F440F551F6D
:1033D0004A0F511D3196DF0111972C91A0EDA20FDC
:1033E000AA3048F3C4FF03C0519541955109040F19
:1033F000151FC1FF07C0E114F10421F03197D70177
:10340000ED93FC930E94EA17C370C33019F06B016F
:103410007C0106C06B017C01F7FAF094F7F8F09498
:1034200020E030E0A901C701B6010E943D178823C2
:1034300009F445C017FF06C0119501951109C1EFA8
:10344000D0E002C0C9E0D1E05E01B8E1AB1AB1083A
:103450004601BE2DAF2D90E2E92EF12C0E151F0571
:1034600084F0FE012591359145915491B4018B2F43
:103470009A2F0E94A1184B01B82FA92F0E191F09CE
:10348000EDCF2497F594E794CA15DB0539F764016D
:10349000EB2EFA2E8E2D880F8F2D881F8F3F49F02F
:1034A00020E030E0A901C701B6010E943D1781115B
:1034B00006C082E290E09093CB038093CA03C701D9
:1034C000B60109C060E070E080E89FEF04C060E0F2
:1034D00070E080EC9FE7CDB7DEB7EEE00C94F01C17
:1034E000A0E0B0E0E6E7FAE10C94D01C5C016B01CF
:1034F0007A016115710519F0FB0191838083E11454
:10350000F10429F0C7010297839708F0F1C0E501A3
:103510002196F5011081812F90E00E94931C892B48
:1035200011F05E01F4CF1D3229F42196F5011181CD
:1035300001E007C01B3221F4E5012296F50111815B
:1035400000E0E114F10459F1F0E1EF16F10461F447
:103550001033E1F488818F7D883569F519812296D1
:10356000026070E1E72EF12C88E0E816F10439F1F1
:103570002CF4F2E0EF16F104C9F12AC08AE0E81653
:10358000F10479F0E0E1EE16F10411F550E1E52ED9
:10359000F12C812C912CA12C68E0B62E2CC010337C
:1035A000C9F23AE0E32EF12C4CEC842E982CA82C96
:1035B0004CE0B42E20C010E3E114F104A9F698E029
:1035C000E92EF12C812C912CA12C20E1B22E13C0DC
:1035D00060E070E080E090E897010F2C000C440B55
:1035E000550B0E948E1649015A0105C0812C912C61
:1035F000A12C80E4B82E60E020E030E0A901270192
:103600000F2C000C660877081E01E0EDE10FEA3090
:1036100060F08FEB810F8A3110F4E9EC05C08FE97F
:10362000810F8A3128F5E9EAE10F8E2F90E08E159F
:103630009F05F4F467FD18C082169306A406B5062C
:1036400090F0C301B2010E94C01C9B01AC012E0F7F
:10365000311D411D511D213031054105F0E85F0745
:1036600010F461E001C06FEF2196F1011081CCCF21
:10367000802F8170C114D10471F0662329F0219745
:10368000F601D183C08307C001FF19C02297F6015C
:10369000D183C08314C067FF12C0811105C02FEF12
:1036A0003FEF4FEF5FE704C020E030E040E050E83C
:1036B00082E290E09093CB038093CA0316C08823E4
:1036C00041F050954095309521953F4F4F4F5F4FBA
:1036D0000CC057FF0AC082E290E09093CB03809326
:1036E000CA032FEF3FEF4FEF5FE7B901CA0104C0F4
:1036F00060E070E080E090E0CDB7DEB7E2E10C94EE
:10370000EC1CA6E0B0E0E7E8FBE10C94D01C5C0107
:103710006B017A016115710519F0DB018D939C93A2
:10372000E114F10429F0C7010297839708F0DCC087
:103730003501BFEF6B1A7B0AF5011081812F90E0F4
:103740000E94931C892B11F05301F2CF1D3249F4D2
:103750003501F2E06F0E711CD50111961C9101E04C
:1037600009C01B3231F43501B2E06B0E711CF5015A
:10377000118100E0E114F10409F4C4C0F0E1EF1696
:10378000F10489F4103399F5D3018C918F7D88353C
:1037900009F0B2C011961C91B2E06B0E711C026070
:1037A00050E1E52EF12CEAE0EE16F10409F4B0C088
:1037B000F0E1EF16F104D9F028E0E216F10451F43B
:1037C00038E0E32EF12C88248A94982CA82C4FE121
:1037D000B42E13C06FEF7FEFCB0197010F2C000CBD
:1037E000440B550B0E948E1649015A0106C08824CD
:1037F0008A94982CA82C2FE0B22E7E826D8260E0F5
:1038000020E030E0A90127010F2C000C66087708A2
:103810002D803E80E0EDE10FEA3060F08FEB810F0C
:103820008A3110F4E9EC05C08FE9810F8A3190F5F7
:10383000E9EAE10F8E2F90E08E159F055CF56F3F52
:1038400009F182169306A406B506D8F0C301B201A9
:103850000E94C01C2E2F30E040E050E029833A83C4
:103860004B835C83260F371F481F591F89819A811C
:10387000AB81BC81281739074A075B0710F061E06C
:1038800001C06FEFED81FE813196FE83ED83D101A2
:103890001C91BECFC114D10489F0662339F08D810B
:1038A0009E810197F6019183808308C001FF06C0C5
:1038B0008D819E810297D6018D939C9300FF07C056
:1038C00050954095309521953F4F4F4F5F4F67FF83
:1038D00010C082E290E09093CB038093CA036FEF15
:1038E0007FEF8FEF9FEF1BC060E070E080E090E023
:1038F00016C0B901CA0113C010E3E114F10409F4C0
:103900005FCF51CF103309F43FCF9AE0E92EF12C6D
:1039100089E9882E982CA82C89E1B82E6ECF26969E
:10392000E2E10C94EC1C91110C94BD1C803219F056
:1039300089508550C8F70895FB01DC014150504083
:1039400088F08D9181341CF08B350CF4805E65918C
:1039500061341CF06B350CF4605E861B611171F3F1
:10396000990B0895881BFCCFFB01DC018D91019020
:1039700080190110D9F3990B089599278827089584
:10398000DB018F939F930E94B616BF91AF91A29FC8
:10399000800D911DA39F900DB29F900D112408954D
:1039A0002F923F924F925F926F927F928F929F924F
:1039B000AF92BF92CF92DF92EF92FF920F931F933D
:1039C000CF93DF93CDB7DEB7CA1BDB0B0FB6F894EE
:1039D000DEBF0FBECDBF09942A88398848885F842E
:1039E0006E847D848C849B84AA84B984C884DF809F
:1039F000EE80FD800C811B81AA81B981CE0FD11D83
:103A00000FB6F894DEBF0FBECDBFED010895F89458
:023A1000FFCFE6
:103A12001F161F1622225C5C6208660C6E0A720D6B
:103A22007409006E756C6C004E614E00496E6669D9
:103A32006E69747900652D00747275650066616C3B
:103A4200736500746869734973456E637279707443
:103A52004B65790070617273654F626A65637428A1
:103A620029206661696C6564006E6F6465006D652E
:103A720074680074797065006461746100727373B4
:103A8200690064617461737A0000000000B3000D84
:103A92000A006E616E00696E66006F7666002E0027
:103AA200000000008B0EB40D0C0E260E180E690ECF
:103AB20000000000FD14AE103C104C15AE15C011F4
:103AC2004B142A10DA115F125711CE1571105E10C5
:00000001FF
